{
  "contractName": "Hotel",
  "abi": [
    {
      "inputs": [
        {
          "internalType": "address",
          "name": "owner_",
          "type": "address"
        },
        {
          "internalType": "address",
          "name": "paymentToken_",
          "type": "address"
        },
        {
          "internalType": "uint256",
          "name": "paymentPerDay_",
          "type": "uint256"
        }
      ],
      "stateMutability": "nonpayable",
      "type": "constructor"
    },
    {
      "anonymous": false,
      "inputs": [
        {
          "indexed": false,
          "internalType": "uint256",
          "name": "roomNumber",
          "type": "uint256"
        }
      ],
      "name": "LogNewRoomRegistered",
      "type": "event"
    },
    {
      "anonymous": false,
      "inputs": [
        {
          "indexed": false,
          "internalType": "uint256",
          "name": "roomNumber",
          "type": "uint256"
        },
        {
          "indexed": false,
          "internalType": "address",
          "name": "guest",
          "type": "address"
        },
        {
          "indexed": false,
          "internalType": "uint256",
          "name": "bookedUntil",
          "type": "uint256"
        }
      ],
      "name": "LogRoomBooked",
      "type": "event"
    },
    {
      "anonymous": false,
      "inputs": [
        {
          "indexed": false,
          "internalType": "uint256",
          "name": "roomNumber",
          "type": "uint256"
        }
      ],
      "name": "LogRoomDeregistered",
      "type": "event"
    },
    {
      "anonymous": false,
      "inputs": [
        {
          "indexed": false,
          "internalType": "uint256",
          "name": "amount",
          "type": "uint256"
        }
      ],
      "name": "LogWithdrawn",
      "type": "event"
    },
    {
      "inputs": [],
      "name": "owner",
      "outputs": [
        {
          "internalType": "address",
          "name": "",
          "type": "address"
        }
      ],
      "stateMutability": "view",
      "type": "function"
    },
    {
      "inputs": [],
      "name": "paymentPerDay",
      "outputs": [
        {
          "internalType": "uint256",
          "name": "",
          "type": "uint256"
        }
      ],
      "stateMutability": "view",
      "type": "function"
    },
    {
      "inputs": [],
      "name": "paymentToken",
      "outputs": [
        {
          "internalType": "address",
          "name": "",
          "type": "address"
        }
      ],
      "stateMutability": "view",
      "type": "function"
    },
    {
      "inputs": [
        {
          "internalType": "uint256",
          "name": "",
          "type": "uint256"
        }
      ],
      "name": "rooms",
      "outputs": [
        {
          "internalType": "bool",
          "name": "available",
          "type": "bool"
        },
        {
          "internalType": "address",
          "name": "guest",
          "type": "address"
        },
        {
          "internalType": "uint256",
          "name": "bookedUntil",
          "type": "uint256"
        }
      ],
      "stateMutability": "view",
      "type": "function"
    },
    {
      "inputs": [
        {
          "internalType": "uint256",
          "name": "roomNumber_",
          "type": "uint256"
        }
      ],
      "name": "registerRoom",
      "outputs": [],
      "stateMutability": "nonpayable",
      "type": "function"
    },
    {
      "inputs": [
        {
          "internalType": "uint256",
          "name": "roomNumber_",
          "type": "uint256"
        }
      ],
      "name": "deregisterRoom",
      "outputs": [],
      "stateMutability": "nonpayable",
      "type": "function"
    },
    {
      "inputs": [
        {
          "internalType": "uint256",
          "name": "roomNumber_",
          "type": "uint256"
        },
        {
          "internalType": "uint256",
          "name": "days_",
          "type": "uint256"
        }
      ],
      "name": "pay",
      "outputs": [],
      "stateMutability": "nonpayable",
      "type": "function"
    },
    {
      "inputs": [
        {
          "internalType": "uint256",
          "name": "roomNumber_",
          "type": "uint256"
        },
        {
          "internalType": "address",
          "name": "guest_",
          "type": "address"
        }
      ],
      "name": "roomIsBooked",
      "outputs": [
        {
          "internalType": "bool",
          "name": "",
          "type": "bool"
        }
      ],
      "stateMutability": "view",
      "type": "function"
    },
    {
      "inputs": [],
      "name": "withdraw",
      "outputs": [],
      "stateMutability": "nonpayable",
      "type": "function"
    }
  ],
  "bytecode": "0x60806040523480156200001157600080fd5b50604051620012973803806200129783398181016040528101906200003791906200016d565b826000806101000a81548173ffffffffffffffffffffffffffffffffffffffff021916908373ffffffffffffffffffffffffffffffffffffffff16021790555081600160006101000a81548173ffffffffffffffffffffffffffffffffffffffff021916908373ffffffffffffffffffffffffffffffffffffffff16021790555080600281905550505050620001c9565b600080fd5b600073ffffffffffffffffffffffffffffffffffffffff82169050919050565b6000620000fa82620000cd565b9050919050565b6200010c81620000ed565b81146200011857600080fd5b50565b6000815190506200012c8162000101565b92915050565b6000819050919050565b620001478162000132565b81146200015357600080fd5b50565b60008151905062000167816200013c565b92915050565b600080600060608486031215620001895762000188620000c8565b5b600062000199868287016200011b565b9350506020620001ac868287016200011b565b9250506040620001bf8682870162000156565b9150509250925092565b6110be80620001d96000396000f3fe608060405234801561001057600080fd5b50600436106100b0576000357c0100000000000000000000000000000000000000000000000000000000900480633013ce29116100835780633013ce29146101515780633ccfd60b1461016f5780638da5cb5b14610179578063ede5090014610197578063ef48eee6146101b3576100b0565b80631524e633146100b55780631bae0ac8146100d15780632d1ca34c146101035780632f46b73e14610121575b600080fd5b6100cf60048036038101906100ca9190610b13565b6101cf565b005b6100eb60048036038101906100e69190610b13565b61033c565b6040516100fa93929190610bab565b60405180910390f35b61010b610393565b6040516101189190610be2565b60405180910390f35b61013b60048036038101906101369190610c29565b610399565b6040516101489190610c69565b60405180910390f35b610159610429565b6040516101669190610c84565b60405180910390f35b61017761044f565b005b6101816106b2565b60405161018e9190610c84565b60405180910390f35b6101b160048036038101906101ac9190610b13565b6106d6565b005b6101cd60048036038101906101c89190610c9f565b610882565b005b60008054906101000a900473ffffffffffffffffffffffffffffffffffffffff1673ffffffffffffffffffffffffffffffffffffffff163373ffffffffffffffffffffffffffffffffffffffff161461025d576040517f08c379a000000000000000000000000000000000000000000000000000000000815260040161025490610d3c565b60405180910390fd5b6000811180156102945750600015156003600083815260200190815260200160002060000160009054906101000a900460ff161515145b6102d3576040517f08c379a00000000000000000000000000000000000000000000000000000000081526004016102ca90610da8565b60405180910390fd5b60016003600083815260200190815260200160002060000160006101000a81548160ff0219169083151502179055507fc2c13c5405224b952d98661de906dbff6cd91d94deb0c1a19787f3a78ab24384816040516103319190610be2565b60405180910390a150565b60036020528060005260406000206000915090508060000160009054906101000a900460ff16908060000160019054906101000a900473ffffffffffffffffffffffffffffffffffffffff16908060010154905083565b60025481565b60008173ffffffffffffffffffffffffffffffffffffffff166003600085815260200190815260200160002060000160019054906101000a900473ffffffffffffffffffffffffffffffffffffffff1673ffffffffffffffffffffffffffffffffffffffff161480156104215750600360008481526020019081526020016000206001015442105b905092915050565b600160009054906101000a900473ffffffffffffffffffffffffffffffffffffffff1681565b60008054906101000a900473ffffffffffffffffffffffffffffffffffffffff1673ffffffffffffffffffffffffffffffffffffffff163373ffffffffffffffffffffffffffffffffffffffff16146104dd576040517f08c379a00000000000000000000000000000000000000000000000000000000081526004016104d490610d3c565b60405180910390fd5b6000600160009054906101000a900473ffffffffffffffffffffffffffffffffffffffff1673ffffffffffffffffffffffffffffffffffffffff166370a08231306040518263ffffffff167c01000000000000000000000000000000000000000000000000000000000281526004016105569190610c84565b602060405180830381865afa158015610573573d6000803e3d6000fd5b505050506040513d601f19601f820116820180604052508101906105979190610ddd565b9050600160009054906101000a900473ffffffffffffffffffffffffffffffffffffffff1673ffffffffffffffffffffffffffffffffffffffff166323b872dd3060008054906101000a900473ffffffffffffffffffffffffffffffffffffffff16846040518463ffffffff167c010000000000000000000000000000000000000000000000000000000002815260040161063493929190610e0a565b6020604051808303816000875af1158015610653573d6000803e3d6000fd5b505050506040513d601f19601f820116820180604052508101906106779190610e6d565b507ff174a8805a92c0a4264ff6d59294470842e20eb1f760eb5169994cbf458556b2816040516106a79190610be2565b60405180910390a150565b60008054906101000a900473ffffffffffffffffffffffffffffffffffffffff1681565b60008054906101000a900473ffffffffffffffffffffffffffffffffffffffff1673ffffffffffffffffffffffffffffffffffffffff163373ffffffffffffffffffffffffffffffffffffffff1614610764576040517f08c379a000000000000000000000000000000000000000000000000000000000815260040161075b90610d3c565b60405180910390fd5b600115156003600083815260200190815260200160002060000160009054906101000a900460ff1615151480156107b05750426003600083815260200190815260200160002060010154105b6107ef576040517f08c379a00000000000000000000000000000000000000000000000000000000081526004016107e690610ee6565b60405180910390fd5b60036000828152602001908152602001600020600080820160006101000a81549060ff02191690556000820160016101000a81549073ffffffffffffffffffffffffffffffffffffffff0219169055600182016000905550507fb561f797cc08e476a0843da86638537eb9f04b7706ac519120aa588a24cc0791816040516108779190610be2565b60405180910390a150565b600081118015610894575061016d8111155b80156108c75750600115156003600084815260200190815260200160002060000160009054906101000a900460ff161515145b80156108e9575042600360008481526020019081526020016000206001015411155b610928576040517f08c379a000000000000000000000000000000000000000000000000000000000815260040161091f90610f52565b60405180910390fd5b6000816002546109389190610fa1565b9050336003600085815260200190815260200160002060000160016101000a81548173ffffffffffffffffffffffffffffffffffffffff021916908373ffffffffffffffffffffffffffffffffffffffff160217905550620151808261099e9190610fa1565b426109a99190610ffb565b6003600085815260200190815260200160002060010181905550600160009054906101000a900473ffffffffffffffffffffffffffffffffffffffff1673ffffffffffffffffffffffffffffffffffffffff166323b872dd3330846040518463ffffffff167c0100000000000000000000000000000000000000000000000000000000028152600401610a3e93929190610e0a565b6020604051808303816000875af1158015610a5d573d6000803e3d6000fd5b505050506040513d601f19601f82011682018060405250810190610a819190610e6d565b507fece90e420fa6738369ea8a119d047c78a6ae37c0ebd6e92799245db757bbf15b83336003600087815260200190815260200160002060010154604051610acb93929190611051565b60405180910390a1505050565b600080fd5b6000819050919050565b610af081610add565b8114610afb57600080fd5b50565b600081359050610b0d81610ae7565b92915050565b600060208284031215610b2957610b28610ad8565b5b6000610b3784828501610afe565b91505092915050565b60008115159050919050565b610b5581610b40565b82525050565b600073ffffffffffffffffffffffffffffffffffffffff82169050919050565b6000610b8682610b5b565b9050919050565b610b9681610b7b565b82525050565b610ba581610add565b82525050565b6000606082019050610bc06000830186610b4c565b610bcd6020830185610b8d565b610bda6040830184610b9c565b949350505050565b6000602082019050610bf76000830184610b9c565b92915050565b610c0681610b7b565b8114610c1157600080fd5b50565b600081359050610c2381610bfd565b92915050565b60008060408385031215610c4057610c3f610ad8565b5b6000610c4e85828601610afe565b9250506020610c5f85828601610c14565b9150509250929050565b6000602082019050610c7e6000830184610b4c565b92915050565b6000602082019050610c996000830184610b8d565b92915050565b60008060408385031215610cb657610cb5610ad8565b5b6000610cc485828601610afe565b9250506020610cd585828601610afe565b9150509250929050565b600082825260208201905092915050565b7f4552524f523a3a41555448000000000000000000000000000000000000000000600082015250565b6000610d26600b83610cdf565b9150610d3182610cf0565b602082019050919050565b60006020820190508181036000830152610d5581610d19565b9050919050565b7f4552524f523a3a414c52454144595f415641494c41424c450000000000000000600082015250565b6000610d92601883610cdf565b9150610d9d82610d5c565b602082019050919050565b60006020820190508181036000830152610dc181610d85565b9050919050565b600081519050610dd781610ae7565b92915050565b600060208284031215610df357610df2610ad8565b5b6000610e0184828501610dc8565b91505092915050565b6000606082019050610e1f6000830186610b8d565b610e2c6020830185610b8d565b610e396040830184610b9c565b949350505050565b610e4a81610b40565b8114610e5557600080fd5b50565b600081519050610e6781610e41565b92915050565b600060208284031215610e8357610e82610ad8565b5b6000610e9184828501610e58565b91505092915050565b7f4552524f523a3a494e56414c49445f414354494f4e0000000000000000000000600082015250565b6000610ed0601583610cdf565b9150610edb82610e9a565b602082019050919050565b60006020820190508181036000830152610eff81610ec3565b9050919050565b7f4552524f523a3a4e4f545f415641494c41424c45000000000000000000000000600082015250565b6000610f3c601483610cdf565b9150610f4782610f06565b602082019050919050565b60006020820190508181036000830152610f6b81610f2f565b9050919050565b7f4e487b7100000000000000000000000000000000000000000000000000000000600052601160045260246000fd5b6000610fac82610add565b9150610fb783610add565b9250817fffffffffffffffffffffffffffffffffffffffffffffffffffffffffffffffff0483118215151615610ff057610fef610f72565b5b828202905092915050565b600061100682610add565b915061101183610add565b9250827fffffffffffffffffffffffffffffffffffffffffffffffffffffffffffffffff0382111561104657611045610f72565b5b828201905092915050565b60006060820190506110666000830186610b9c565b6110736020830185610b8d565b6110806040830184610b9c565b94935050505056fea2646970667358221220e4ac0775d9f5f42be55eb2febe9748df16d63a3599388fc78963c1ff1538196764736f6c634300080a0033",
  "immutableReferences": {},
  "source": "// SPDX-License-Identifier: UNLICENSED\npragma solidity ^0.8.0;\n\nimport \"@openzeppelin/contracts/token/ERC20/IERC20.sol\";\n\ncontract Hotel {\n    event LogNewRoomRegistered(uint256 roomNumber);\n    event LogRoomBooked(\n        uint256 roomNumber,\n        address guest,\n        uint256 bookedUntil\n    );\n    event LogRoomDeregistered(uint256 roomNumber);\n    event LogWithdrawn(uint256 amount);\n\n    address public owner;\n    address public paymentToken;\n    uint256 public paymentPerDay;\n\n    modifier onlyOwner() {\n        require(msg.sender == owner, \"ERROR::AUTH\");\n        _;\n    }\n\n    struct Room {\n        bool available;\n        address guest;\n        uint256 bookedUntil;\n    }\n    // RoomNumber => Room\n    mapping(uint256 => Room) public rooms;\n\n    constructor(\n        address owner_,\n        address paymentToken_,\n        uint256 paymentPerDay_\n    ) {\n        owner = owner_;\n        paymentToken = paymentToken_;\n        paymentPerDay = paymentPerDay_;\n    }\n\n    function registerRoom(uint256 roomNumber_) external onlyOwner {   //  10\n        require(roomNumber_ > 0 && rooms[roomNumber_].available == false, \"ERROR::ALREADY_AVAILABLE\");\n        rooms[roomNumber_].available = true;\n        emit LogNewRoomRegistered(roomNumber_);\n    }\n\n    function deregisterRoom(uint256 roomNumber_) external onlyOwner {\n        require(\n            rooms[roomNumber_].available == true &&\n            rooms[roomNumber_].bookedUntil < block.timestamp,\n            \"ERROR::INVALID_ACTION\"\n        );\n\n        delete rooms[roomNumber_];\n\n        emit LogRoomDeregistered(roomNumber_);\n    }\n\n    function pay(uint256 roomNumber_, uint256 days_) external {\n        require(\n            days_ > 0 && days_ <= 365 &&\n            rooms[roomNumber_].available == true &&\n            rooms[roomNumber_].bookedUntil <= block.timestamp,\n            \"ERROR::NOT_AVAILABLE\"\n        );\n\n        uint256 total = paymentPerDay * days_;\n\n        rooms[roomNumber_].guest = msg.sender;\n        rooms[roomNumber_].bookedUntil = block.timestamp + days_ * 1 days;\n\n        IERC20(paymentToken).transferFrom(msg.sender, address(this), total);\n\n        emit LogRoomBooked(roomNumber_, msg.sender, rooms[roomNumber_].bookedUntil);\n    }\n\n    function roomIsBooked(uint256 roomNumber_, address guest_) external view returns (bool) {\n        return rooms[roomNumber_].guest == guest_ && block.timestamp < rooms[roomNumber_].bookedUntil;\n    }\n\n    function withdraw() external onlyOwner {\n        uint256 balance = IERC20(paymentToken).balanceOf(address(this));\n        IERC20(paymentToken).transferFrom(address(this), owner, balance);\n        emit LogWithdrawn(balance);\n    }\n}\n",
  "sourcePath": "D:\\Learn\\crypto\\pract\\template  \\contracts\\Hotel.sol",
  "compiler": {
    "name": "solc",
    "version": "0.8.10+commit.fc410830.Emscripten.clang"
  },
  "schemaVersion": "3.4.3",
  "updatedAt": "2021-12-30T13:35:25.961Z",
  "devdoc": {
    "kind": "dev",
    "methods": {},
    "version": 1
  },
  "userdoc": {
    "kind": "user",
    "methods": {},
    "version": 1
  }
}