{
  "contractName": "Worker",
  "abi": [
    {
      "inputs": [
        {
          "internalType": "address",
          "name": "owner_",
          "type": "address"
        },
        {
          "internalType": "address",
          "name": "salaryToken_",
          "type": "address"
        },
        {
          "internalType": "uint256",
          "name": "salaryPerDay_",
          "type": "uint256"
        }
      ],
      "stateMutability": "nonpayable",
      "type": "constructor"
    },
    {
      "anonymous": false,
      "inputs": [
        {
          "indexed": false,
          "internalType": "uint256",
          "name": "salaryNumber",
          "type": "uint256"
        }
      ],
      "name": "LogNewSalaryRegistered",
      "type": "event"
    },
    {
      "anonymous": false,
      "inputs": [
        {
          "indexed": false,
          "internalType": "uint256",
          "name": "salaryNumber",
          "type": "uint256"
        }
      ],
      "name": "LogSSalaryDeregistered",
      "type": "event"
    },
    {
      "anonymous": false,
      "inputs": [
        {
          "indexed": false,
          "internalType": "uint256",
          "name": "salaryNumber",
          "type": "uint256"
        },
        {
          "indexed": false,
          "internalType": "address",
          "name": "worker",
          "type": "address"
        },
        {
          "indexed": false,
          "internalType": "uint256",
          "name": "bookedUntil",
          "type": "uint256"
        }
      ],
      "name": "LogSalaryBooked",
      "type": "event"
    },
    {
      "anonymous": false,
      "inputs": [
        {
          "indexed": false,
          "internalType": "uint256",
          "name": "amount",
          "type": "uint256"
        }
      ],
      "name": "LogWithdrawn",
      "type": "event"
    },
    {
      "inputs": [
        {
          "internalType": "uint256",
          "name": "",
          "type": "uint256"
        }
      ],
      "name": "numberOfDaysSalary",
      "outputs": [
        {
          "internalType": "bool",
          "name": "available",
          "type": "bool"
        },
        {
          "internalType": "address",
          "name": "worker",
          "type": "address"
        },
        {
          "internalType": "uint256",
          "name": "bookedUntil",
          "type": "uint256"
        }
      ],
      "stateMutability": "view",
      "type": "function"
    },
    {
      "inputs": [],
      "name": "owner",
      "outputs": [
        {
          "internalType": "address",
          "name": "",
          "type": "address"
        }
      ],
      "stateMutability": "view",
      "type": "function"
    },
    {
      "inputs": [],
      "name": "salaryPerDay",
      "outputs": [
        {
          "internalType": "uint256",
          "name": "",
          "type": "uint256"
        }
      ],
      "stateMutability": "view",
      "type": "function"
    },
    {
      "inputs": [],
      "name": "salaryToken",
      "outputs": [
        {
          "internalType": "address",
          "name": "",
          "type": "address"
        }
      ],
      "stateMutability": "view",
      "type": "function"
    },
    {
      "inputs": [
        {
          "internalType": "uint256",
          "name": "counterDays_",
          "type": "uint256"
        }
      ],
      "name": "registerSSalary",
      "outputs": [],
      "stateMutability": "nonpayable",
      "type": "function"
    },
    {
      "inputs": [
        {
          "internalType": "uint256",
          "name": "counterDays_",
          "type": "uint256"
        }
      ],
      "name": "deregisterSSalary",
      "outputs": [],
      "stateMutability": "nonpayable",
      "type": "function"
    },
    {
      "inputs": [
        {
          "internalType": "uint256",
          "name": "counterDays_",
          "type": "uint256"
        },
        {
          "internalType": "uint256",
          "name": "days_",
          "type": "uint256"
        }
      ],
      "name": "pay",
      "outputs": [],
      "stateMutability": "nonpayable",
      "type": "function"
    },
    {
      "inputs": [
        {
          "internalType": "uint256",
          "name": "counterDays_",
          "type": "uint256"
        },
        {
          "internalType": "address",
          "name": "currentWorker_",
          "type": "address"
        }
      ],
      "name": "salaryIsAvailable",
      "outputs": [
        {
          "internalType": "bool",
          "name": "",
          "type": "bool"
        }
      ],
      "stateMutability": "view",
      "type": "function"
    },
    {
      "inputs": [],
      "name": "withdraw",
      "outputs": [],
      "stateMutability": "nonpayable",
      "type": "function"
    }
  ],
  "bytecode": "0x60806040523480156200001157600080fd5b50604051620012963803806200129683398181016040528101906200003791906200016d565b826000806101000a81548173ffffffffffffffffffffffffffffffffffffffff021916908373ffffffffffffffffffffffffffffffffffffffff16021790555081600160006101000a81548173ffffffffffffffffffffffffffffffffffffffff021916908373ffffffffffffffffffffffffffffffffffffffff16021790555080600281905550505050620001c9565b600080fd5b600073ffffffffffffffffffffffffffffffffffffffff82169050919050565b6000620000fa82620000cd565b9050919050565b6200010c81620000ed565b81146200011857600080fd5b50565b6000815190506200012c8162000101565b92915050565b6000819050919050565b620001478162000132565b81146200015357600080fd5b50565b60008151905062000167816200013c565b92915050565b600080600060608486031215620001895762000188620000c8565b5b600062000199868287016200011b565b9350506020620001ac868287016200011b565b9250506040620001bf8682870162000156565b9150509250925092565b6110bd80620001d96000396000f3fe608060405234801561001057600080fd5b50600436106100b0576000357c0100000000000000000000000000000000000000000000000000000000900480638da5cb5b116100835780638da5cb5b1461011557806393a5e72b14610133578063e403bf6014610165578063ef48eee614610195578063f67dcdfc146101b1576100b0565b80633ccfd60b146100b55780633e1ae471146100bf5780635aa694f7146100db5780635acdf4a4146100f7575b600080fd5b6100bd6101cf565b005b6100d960048036038101906100d49190610b12565b610432565b005b6100f560048036038101906100f09190610b12565b61059f565b005b6100ff61074b565b60405161010c9190610b80565b60405180910390f35b61011d610771565b60405161012a9190610b80565b60405180910390f35b61014d60048036038101906101489190610b12565b610795565b60405161015c93929190610bc5565b60405180910390f35b61017f600480360381019061017a9190610c28565b6107ec565b60405161018c9190610c68565b60405180910390f35b6101af60048036038101906101aa9190610c83565b61087c565b005b6101b9610ad1565b6040516101c69190610cc3565b60405180910390f35b60008054906101000a900473ffffffffffffffffffffffffffffffffffffffff1673ffffffffffffffffffffffffffffffffffffffff163373ffffffffffffffffffffffffffffffffffffffff161461025d576040517f08c379a000000000000000000000000000000000000000000000000000000000815260040161025490610d3b565b60405180910390fd5b6000600160009054906101000a900473ffffffffffffffffffffffffffffffffffffffff1673ffffffffffffffffffffffffffffffffffffffff166370a08231306040518263ffffffff167c01000000000000000000000000000000000000000000000000000000000281526004016102d69190610b80565b602060405180830381865afa1580156102f3573d6000803e3d6000fd5b505050506040513d601f19601f820116820180604052508101906103179190610d70565b9050600160009054906101000a900473ffffffffffffffffffffffffffffffffffffffff1673ffffffffffffffffffffffffffffffffffffffff166323b872dd3060008054906101000a900473ffffffffffffffffffffffffffffffffffffffff16846040518463ffffffff167c01000000000000000000000000000000000000000000000000000000000281526004016103b493929190610d9d565b6020604051808303816000875af11580156103d3573d6000803e3d6000fd5b505050506040513d601f19601f820116820180604052508101906103f79190610e00565b507ff174a8805a92c0a4264ff6d59294470842e20eb1f760eb5169994cbf458556b2816040516104279190610cc3565b60405180910390a150565b60008054906101000a900473ffffffffffffffffffffffffffffffffffffffff1673ffffffffffffffffffffffffffffffffffffffff163373ffffffffffffffffffffffffffffffffffffffff16146104c0576040517f08c379a00000000000000000000000000000000000000000000000000000000081526004016104b790610d3b565b60405180910390fd5b6000811180156104f75750600015156003600083815260200190815260200160002060000160009054906101000a900460ff161515145b610536576040517f08c379a000000000000000000000000000000000000000000000000000000000815260040161052d90610e79565b60405180910390fd5b60016003600083815260200190815260200160002060000160006101000a81548160ff0219169083151502179055507f68c0a9017357093e029a4d8bbb0ec698421c6147680a04ef26d98c8c24485664816040516105949190610cc3565b60405180910390a150565b60008054906101000a900473ffffffffffffffffffffffffffffffffffffffff1673ffffffffffffffffffffffffffffffffffffffff163373ffffffffffffffffffffffffffffffffffffffff161461062d576040517f08c379a000000000000000000000000000000000000000000000000000000000815260040161062490610d3b565b60405180910390fd5b600115156003600083815260200190815260200160002060000160009054906101000a900460ff1615151480156106795750426003600083815260200190815260200160002060010154105b6106b8576040517f08c379a00000000000000000000000000000000000000000000000000000000081526004016106af90610ee5565b60405180910390fd5b60036000828152602001908152602001600020600080820160006101000a81549060ff02191690556000820160016101000a81549073ffffffffffffffffffffffffffffffffffffffff0219169055600182016000905550507f96bef3462ef3483a38c8e6d514a815f9454fc534e1961e85d866b17971ed4768816040516107409190610cc3565b60405180910390a150565b600160009054906101000a900473ffffffffffffffffffffffffffffffffffffffff1681565b60008054906101000a900473ffffffffffffffffffffffffffffffffffffffff1681565b60036020528060005260406000206000915090508060000160009054906101000a900460ff16908060000160019054906101000a900473ffffffffffffffffffffffffffffffffffffffff16908060010154905083565b60008173ffffffffffffffffffffffffffffffffffffffff166003600085815260200190815260200160002060000160019054906101000a900473ffffffffffffffffffffffffffffffffffffffff1673ffffffffffffffffffffffffffffffffffffffff161480156108745750600360008481526020019081526020016000206001015442105b905092915050565b60008111801561088d5750601e8111155b80156108c05750600115156003600084815260200190815260200160002060000160009054906101000a900460ff161515145b80156108e2575042600360008481526020019081526020016000206001015411155b610921576040517f08c379a000000000000000000000000000000000000000000000000000000000815260040161091890610f51565b60405180910390fd5b6000816002546109319190610fa0565b9050336003600085815260200190815260200160002060000160016101000a81548173ffffffffffffffffffffffffffffffffffffffff021916908373ffffffffffffffffffffffffffffffffffffffff16021790555062015180826109979190610fa0565b426109a29190610ffa565b6003600085815260200190815260200160002060010181905550600160009054906101000a900473ffffffffffffffffffffffffffffffffffffffff1673ffffffffffffffffffffffffffffffffffffffff166323b872dd3330846040518463ffffffff167c0100000000000000000000000000000000000000000000000000000000028152600401610a3793929190610d9d565b6020604051808303816000875af1158015610a56573d6000803e3d6000fd5b505050506040513d601f19601f82011682018060405250810190610a7a9190610e00565b507fde8e39cbed776a9db2b27e33fba4cbad1e8a53b6f69cfe5b1be0fcad8794d1b783336003600087815260200190815260200160002060010154604051610ac493929190611050565b60405180910390a1505050565b60025481565b600080fd5b6000819050919050565b610aef81610adc565b8114610afa57600080fd5b50565b600081359050610b0c81610ae6565b92915050565b600060208284031215610b2857610b27610ad7565b5b6000610b3684828501610afd565b91505092915050565b600073ffffffffffffffffffffffffffffffffffffffff82169050919050565b6000610b6a82610b3f565b9050919050565b610b7a81610b5f565b82525050565b6000602082019050610b956000830184610b71565b92915050565b60008115159050919050565b610bb081610b9b565b82525050565b610bbf81610adc565b82525050565b6000606082019050610bda6000830186610ba7565b610be76020830185610b71565b610bf46040830184610bb6565b949350505050565b610c0581610b5f565b8114610c1057600080fd5b50565b600081359050610c2281610bfc565b92915050565b60008060408385031215610c3f57610c3e610ad7565b5b6000610c4d85828601610afd565b9250506020610c5e85828601610c13565b9150509250929050565b6000602082019050610c7d6000830184610ba7565b92915050565b60008060408385031215610c9a57610c99610ad7565b5b6000610ca885828601610afd565b9250506020610cb985828601610afd565b9150509250929050565b6000602082019050610cd86000830184610bb6565b92915050565b600082825260208201905092915050565b7f4552524f523a3a41555448000000000000000000000000000000000000000000600082015250565b6000610d25600b83610cde565b9150610d3082610cef565b602082019050919050565b60006020820190508181036000830152610d5481610d18565b9050919050565b600081519050610d6a81610ae6565b92915050565b600060208284031215610d8657610d85610ad7565b5b6000610d9484828501610d5b565b91505092915050565b6000606082019050610db26000830186610b71565b610dbf6020830185610b71565b610dcc6040830184610bb6565b949350505050565b610ddd81610b9b565b8114610de857600080fd5b50565b600081519050610dfa81610dd4565b92915050565b600060208284031215610e1657610e15610ad7565b5b6000610e2484828501610deb565b91505092915050565b7f4552524f523a3a414c52454144595f415641494c41424c450000000000000000600082015250565b6000610e63601883610cde565b9150610e6e82610e2d565b602082019050919050565b60006020820190508181036000830152610e9281610e56565b9050919050565b7f4552524f523a3a494e56414c49445f414354494f4e0000000000000000000000600082015250565b6000610ecf601583610cde565b9150610eda82610e99565b602082019050919050565b60006020820190508181036000830152610efe81610ec2565b9050919050565b7f4552524f523a3a4e4f545f415641494c41424c45000000000000000000000000600082015250565b6000610f3b601483610cde565b9150610f4682610f05565b602082019050919050565b60006020820190508181036000830152610f6a81610f2e565b9050919050565b7f4e487b7100000000000000000000000000000000000000000000000000000000600052601160045260246000fd5b6000610fab82610adc565b9150610fb683610adc565b9250817fffffffffffffffffffffffffffffffffffffffffffffffffffffffffffffffff0483118215151615610fef57610fee610f71565b5b828202905092915050565b600061100582610adc565b915061101083610adc565b9250827fffffffffffffffffffffffffffffffffffffffffffffffffffffffffffffffff0382111561104557611044610f71565b5b828201905092915050565b60006060820190506110656000830186610bb6565b6110726020830185610b71565b61107f6040830184610bb6565b94935050505056fea2646970667358221220844f021c47731905a939f39d7dc8329e27fe037da5c878d51cb489e4a1bda88964736f6c634300080a0033",
  "immutableReferences": {},
  "source": "// SPDX-License-Identifier: UNLICENSED\r\npragma solidity ^0.8.0;\r\n\r\nimport \"@openzeppelin/contracts/token/ERC20/IERC20.sol\";\r\n\r\ncontract Worker {\r\n    event LogNewSalaryRegistered(uint256 salaryNumber);\r\n    event LogSalaryBooked(\r\n        uint256 salaryNumber,\r\n        address worker,\r\n        uint256 bookedUntil\r\n    );\r\n    event LogSSalaryDeregistered(uint256 salaryNumber);\r\n    event LogWithdrawn(uint256 amount);\r\n\r\n    address public owner;\r\n    address public salaryToken;\r\n    uint256 public salaryPerDay;\r\n\r\n    modifier onlyOwner() {\r\n        require(msg.sender == owner, \"ERROR::AUTH\");\r\n        _;\r\n    }\r\n\r\n    struct SSalary {\r\n        bool available;\r\n        address worker;\r\n        uint256 bookedUntil;\r\n    }\r\n \r\n    mapping(uint256 => SSalary) public numberOfDaysSalary;\r\n\r\n    constructor(\r\n        address owner_,\r\n        address salaryToken_,\r\n        uint256 salaryPerDay_\r\n    ) {\r\n        owner = owner_;\r\n        salaryToken = salaryToken_;\r\n        salaryPerDay = salaryPerDay_;\r\n    }\r\n\r\n    function registerSSalary(uint256 counterDays_) external onlyOwner {  \r\n        require(counterDays_ > 0 && numberOfDaysSalary[counterDays_].available == false, \"ERROR::ALREADY_AVAILABLE\");\r\n        numberOfDaysSalary[counterDays_].available = true;\r\n        emit LogNewSalaryRegistered(counterDays_);\r\n    }\r\n\r\n    function deregisterSSalary(uint256 counterDays_) external onlyOwner {\r\n        require(\r\n            numberOfDaysSalary[counterDays_].available == true &&\r\n            numberOfDaysSalary[counterDays_].bookedUntil < block.timestamp,\r\n            \"ERROR::INVALID_ACTION\"\r\n        );\r\n\r\n        delete numberOfDaysSalary[counterDays_];\r\n\r\n        emit LogSSalaryDeregistered(counterDays_);\r\n    }\r\n\r\n    function pay(uint256 counterDays_, uint256 days_) external {\r\n        require(\r\n            days_ > 0 && days_ <= 30 &&\r\n            numberOfDaysSalary[counterDays_].available == true &&\r\n            numberOfDaysSalary[counterDays_].bookedUntil <= block.timestamp,\r\n            \"ERROR::NOT_AVAILABLE\"\r\n        );\r\n\r\n        uint256 total = salaryPerDay * days_;\r\n\r\n        numberOfDaysSalary[counterDays_].worker = msg.sender;\r\n        numberOfDaysSalary[counterDays_].bookedUntil = block.timestamp + days_ * 1 days;\r\n\r\n        IERC20(salaryToken).transferFrom(msg.sender, address(this), total);\r\n\r\n        emit LogSalaryBooked(counterDays_, msg.sender, numberOfDaysSalary[counterDays_].bookedUntil);\r\n    }\r\n\r\n    function salaryIsAvailable(uint256 counterDays_, address currentWorker_) external view returns (bool) {\r\n        return numberOfDaysSalary[counterDays_].worker == currentWorker_ && block.timestamp < numberOfDaysSalary[counterDays_].bookedUntil;\r\n    }\r\n\r\n    function withdraw() external onlyOwner {\r\n        uint256 balance = IERC20(salaryToken).balanceOf(address(this));\r\n        IERC20(salaryToken).transferFrom(address(this), owner, balance);\r\n        emit LogWithdrawn(balance);\r\n    }\r\n}\r\n",
  "sourcePath": "D:\\Learn\\crypto\\pract\\template  \\contracts\\Worker.sol",
  "compiler": {
    "name": "solc",
    "version": "0.8.10+commit.fc410830.Emscripten.clang"
  },
  "schemaVersion": "3.4.3",
  "updatedAt": "2021-12-30T13:36:01.376Z",
  "devdoc": {
    "kind": "dev",
    "methods": {},
    "version": 1
  },
  "userdoc": {
    "kind": "user",
    "methods": {},
    "version": 1
  }
}